:020000040800F2
:100000000008002089010008E9010008E901000852
:10001000E9010008E9010008E9010008000000000A
:10002000000000000000000000000000E9010008DE
:10003000E901000800000000E9010008E9010008EA
:10004000E9010008E9010008E9010008E9010008E8
:10005000E9010008E9010008E9010008E9010008D8
:10006000E9010008E9010008E9010008E9010008C8
:10007000E9010008E9010008E9010008E9010008B8
:10008000E9010008E9010008E9010008E9010008A8
:10009000E9010008E9010008E9010008E901000898
:1000A000E9010008E9010008E9010008E901000888
:1000B00019020008E9010008E9010008E901000847
:1000C000E9010008E9010008E9010008E901000868
:1000D000E9010008E9010008E9010008E901000858
:1000E000E9010008E9010008E9010008E901000848
:1000F000E9010008E9010008E9010008E901000838
:10010000E9010008E9010008E9010008E901000827
:10011000E9010008E9010008E9010008E901000817
:10012000E9010008E9010008E9010008E901000807
:10013000E9010008E9010008E9010008E9010008F7
:10014000E9010008E9010008E9010008E9010008E7
:10015000E9010008E9010008E9010008E9010008D7
:10016000E9010008E9010008E9010008E9010008C7
:10017000E9010008E9010008E9010008E9010008B7
:10018000E9010008E901000880B582B000AF114B19
:100190007B60114B3B6007E03B681A1D3A607A6850
:1001A000111D796012681A603B680C4A9342F3D3C0
:1001B0000B480C494FF000028842B8BF40F8042BAE
:1001C000FADB00F099F800F013F800BF0837BD46DD
:1001D00080BD00BF8804000800000020000000204F
:1001E000000000200000002080B400AFFEE700BF48
:1001F00080B500AF0121022000F030F8012101207C
:1002000000F04AF80121034800F064F8052000F0EE
:100210000DF8F7E70004024080B500AF00214FF071
:10022000804000F011F900BF80BD00BF80B584B0F0
:1002300000AF78600023FB6007E001214FF08040B1
:1002400000F002F9FB680133FB60FA687B689A42B0
:10025000F3DB00BF1037BD4680BD00BF80B483B064
:1002600000AF78600B46FB70FB78002B06D0094985
:10027000084B1A6B7B6813430B6306E00549054B7B
:100280001A6B7B68DB4313400B6300BF0C37BD4622
:1002900080BC70470038024080B483B000AF786003
:1002A0000B46FB70FB78002B06D00949084B1A6CF3
:1002B0007B6813430B6406E00549054B1A6C7B68A9
:1002C000DB4313400B6400BF0C37BD4680BC704756
:1002D0000038024080B483B000AF78600B467B806A
:1002E0007B685A697B885A407B685A6100BF0C372B
:1002F000BD4680BC704700BF80B500AF124A124BAC
:100300001B6843F0010313600F4B00229A600E4AF2
:100310000D4B1B6823F0847323F4803313600A4B66
:100320000A4A5A60084A084B1B6823F4802313606A
:10033000054B0022DA6000F00DF8054B4FF000622B
:100340009A6000BF80BD00BF00380240103000241A
:1003500000ED00E080B483B000AF00237B60002399
:100360003B60354A344B1B6843F480331360324B97
:100370001B6803F400333B607B6801337B603B68A0
:10038000002B03D17B68B3F5A06FF0D12A4B1B681B
:1003900003F40033002B02D001233B6001E0002373
:1003A0003B603B68012B42D1234A234B1B6C43F03B
:1003B00080531364214A214B1B6843F4804313602C
:1003C0001D4A1D4B9B6893601B4A1B4B9B6843F463
:1003D00000439360184A184B9B6843F4A053936002
:1003E000154B174A5A60144A134B1B6843F080732D
:1003F000136000BF104B1B6803F00073002BF9D093
:10040000104B40F205621A600B4A0B4B9B6823F0BD
:1004100003039360084A084B9B6843F00203936010
:1004200000BF054B9B6803F00C03082BF9D100BFFC
:100430000C37BD4680BC7047003802400070004059
:1004400008544007003C024080B483B000AF78609D
:100450000B46FB70FB78002B08D07B681B889BB297
:1004600043F001039AB27B681A8007E07B681B881F
:100470009BB223F001039AB27B681A8000BF0C374D
:08048000BD4680BC704700BFBF
:0400000508000000EF
:00000001FF
